:020000040800F2
:100000002009002001010008DF1C0008611B000816
:10001000DD1C00082F060008731F00080000000008
:10002000000000000000000000000000B91E0008F1
:100030003106000800000000B71E0008111F00086C
:100040001B0100081B0100081B0100081B01000820
:100050001B0100081B0100081B0100081B01000810
:100060001B0100081B0100081B0100081B01000800
:100070001B0100081B0100081B0100081B010008F0
:100080001B0100081B0100081B0100081B010008E0
:100090001B0100081B0100081B0100081B010008D0
:1000A0001B0100081B0100081B0100081B010008C0
:1000B0001B0100081B0100081B0100081B010008B0
:1000C0001B0100081B0100081B0100081B010008A0
:1000D0001B0100081B0100081B0100081B01000890
:1000E0001B0100081B0100081B010008DFF80CD0F1
:1000F00000F07CFA00480047152000082009002085
:100100000648804706480047FEE7FEE7FEE7FEE7B1
:10011000FEE7FEE7FEE7FEE7FEE7FEE7711F0008E9
:10012000ED000008202A04DB203A21FA02F0002129
:10013000704721FA02F3D040C2F1200291400843F7
:100140001946704740EA01039B0703D009E008C93C
:10015000121F08C0042AFAD203E011F8013B00F88C
:10016000013B521EF9D27047D2B201E000F8012BD8
:10017000491EFBD270470022F6E710B513460A4627
:1001800004461946FFF7F0FF204610BDF0B480EAA0
:100190000102D40F4200B2EB410F02D202460846E0
:1001A00011464A0042D0C30DDDB2C1F3C752AD1AA9
:1001B000202D35DAC1F3160141F4000204B1524298
:1001C000C5F1200602FA06F12A411044B3EBD05FD4
:1001D00023D0C4B1012DA0EBC35009DCF0BC4FF01B
:1001E000004202EAC352DBB200F5000000F072B92F
:1001F000400000F1807000EBC350A0F1807040EA35
:10020000D170490009E0490841EAC071A0EBC35030
:1002100000F50000400800EBC350F0BC00F051B9FD
:100220006142012202EB4101001BF6E7F0BC70477E
:1002300081F00041AAE780F00040A7E780EA0102D0
:1002400010B502F00043400022D04A001FD0010E3A
:1002500001EB1261C0F35600C2F3560240F40000F5
:1002600042F40002A0FB022000047F39140400D0F5
:10027000401C50EA124001D44000491EC2B20C0694
:1002800004EBD010401C4008802A02D003E000207C
:1002900010BD20F00100002900DA0020184310BD35
:1002A00030B480EA010202F0004530F0004221F053
:1002B000004013D090B1C30DD40DC2F31601C0F3AA
:1002C0001600E41A41F4000140F400027D3491422A
:1002D00001D3641C00E04900002C02DA30BC00208D
:1002E00070474FF400000023914201D3891A034361
:1002F00040084FEA4101F7D151B1914202D14FF08C
:10030000004105E002D24FF0010101E06FF0010170
:1003100003EBC450284430BC00F0D3B82DE9F04DB5
:1003200081EA030404F0004B21F0004514464FF02D
:10033000000A23F0004150EA050220D054EA0102ED
:100340001DD0C5F30A570246C5F31303C1F31300CA
:10035000C1F30A5640F4801543F48013A7EB060856
:10036000101BD64608F2FD3873EB050002D308F1E6
:10037000010801E092185B41B8F1000F03DA002098
:100380000146BDE8F08D00204FF4801106468446FA
:100390000EE0171B73EB050705D3121B63EB050378
:1003A00006434CEA010C49084FEA300092185B41C1
:1003B00050EA0107EDD152EA030012D082EA0400AC
:1003C00083EA0501084305D0101BAB4106D2012288
:1003D000002306E000224FF0004302E06FF001022C
:1003E00053101AEB06004CEB085110EB0A0041EBDE
:1003F0000B01BDE8F04D00F09BB8C10F80EAE07042
:100400000844CA079623002100F064B8962300220E
:10041000114600F05FB80EB540F233410291002161
:10042000CDE900110A460B4600F091F803B000BD7B
:1004300000F0004220F00040C10DC0F3160040F46F
:1004400000007F2901DA00207047962903DCC1F102
:100450009601C84001E096398840002AF4D0404215
:10046000704720F00040C10DC0F3160040F40000BA
:100470007F2901DA00207047962903DCC1F196013B
:10048000C840704796398840704701F0004330B447
:1004900021F0004150EA010206D00A0DA2F5607277
:1004A000C1F31301002A02DC30BC00207047440F66
:1004B00044EAC104C100E01830BC00EBC250AFF305
:1004C00000800029A8BF7047401C490008BF20F0E9
:1004D0000100704710B4B0FA80FC00FA0CF050EA4A
:1004E000010404BF10BC704749B1CCF1200421FACB
:1004F00004F411FA0CF118BF012121430843A3EBC6
:100500000C01CB1D4FEA00614FEA102042BF0020D2
:1005100010BC704700EBC35010440029A4BF10BCAE
:100520007047401C490008BF20F0010010BC704714
:1005300010B5141E73F1000408DA401C41F10001EB
:1005400092185B411A4301D120F0010010BD2DE942
:10055000F04D92469B4611B1B1FA81F202E0B0FA39
:1005600080F22032904600F053F804460F4640EAED
:100570000A0041EA0B0153465A46084313D011467C
:1005800053EA010019D0C8F140025046FFF7CAFDF6
:1005900005460E4650465946424600F039F8084393
:1005A00005D0012004E020463946BDE8F08D00204A
:1005B000054346EAE0762C4337430A986305E40A8C
:1005C000A0EB08000022FD0A44EA47540A3002D595
:1005D00000200146E9E7010510196941DDE90845F8
:1005E00000196941BDE8F04DA2E70000064C074D37
:1005F00006E0E06840F0010394E8070098471034F3
:10060000AC42F6D3FFF776FDF8270008182800085B
:10061000202A04DB203A00FA02F1002070479140C2
:10062000C2F1200320FA03F3194390407047FEE71C
:1006300070472DE9FC5F044600F034FB2289217BE2
:100640006FF0070AB2FBF1F14EB2E17B6FF00B0BDA
:10065000731A04F124071AD401EB41010AEB810259
:1006600060690BEB81018258415C204600F04EF935
:1006700060623A462046A16A00F064F984F82D00D1
:10068000E17B237B2268491E01FB032254E000909A
:10069000608961680B1820685B1E0244521E00F0DE
:1006A000D7FA01252CE0E07B6169801B284400EB30
:1006B0004000042202EB80028A5A11F820800FFACF
:1006C00082F9082202EB80004A460958204600F0D1
:1006D0005FF9CDE90080227B2168681E00FB0212D1
:1006E000E07B6169801B284400EB4003082000EB9D
:1006F00083004B460958204600F02AF86D1CEDB2E5
:10070000B542D0DBE17B606901EB41010AEB81027C
:100710000BEB81018258415C204600F0F7F86062E3
:100720003A462046A16A00F00DF984F82D00227B9C
:100730002168761E06FB02122262A17BCDE9001021
:10074000D4E90931204600F003F8BDE8FC9F000021
:100750002DE9F04F85B09B461546884604464FF07C
:10076000000A0F9F00F098FA019000F09BFA0146F2
:100770000E9887420CD8C01B401C00F0FF0A0020D6
:1007800004E000BFD8F80880401CC0B25045F9D33F
:100790000091617B681E07FB01B3217B02900A1860
:1007A0005946284600F054FA0BF102000390A5F1D7
:1007B000080000260BF10109049063E00E980AEB93
:1007C0000601814232D101980090607BABF10101BA
:1007D000721C02FB0013227B02990A4406FB009163
:1007E000681C00F035FA00F02BFAD8F804000090ED
:1007F000207B617BC01E82B20398002306FB0101AF
:10080000A81C00F001FCD8F80C0060B13EA00090DC
:10081000617B0398227B06FB0101049800231044AE
:10082000062200F0F1FB00F00BFA1DE0D8F80400FE
:100830000090207B617BC01E82B20398002306FBE0
:100840000101A81C00F0E0FBD8F80C0060B12EA05C
:100850000090617B0398227B06FB01010498002332
:100860001044062200F0D0FB217B0298761C0A1867
:10087000617B681C06FB01B1019B00F019FAD8F8F6
:100880000880F6B2BE4299D3217B0298019B0A18D8
:100890005946681C00F00CFA61896068627B084464
:1008A00007FB0291401E884206DB227B0298019BD7
:1008B0000244681C00F0FCF9617B284607FB0192AA
:1008C0005946019B00F04CFB617B207B07FB0192AA
:1008D00028445946019B00F043FB218920680144CC
:1008E000207B421991420BDD627B019B07FB029248
:1008F0006D1C05B028445946BDE8F04F00F030BBF0
:1009000005B0BDE8F08F00003E00000010B544685F
:100910004389141B1C1B437B641E94FBF3F0C0B281
:10092000814203D3401E00FB032010BD01FB0320C6
:1009300010BD00000148006870470000140000204E
:100940000020704770B506461088154604B2084668
:1009500000F06AF80146286873687289C01A101A94
:10096000727B401E90FBF2F0C0B2884201D3084671
:1009700070BD401CA41A24B2C0B2A34204DD1119F8
:10098000401E0CB2C0B201E08842F2D12C6070BDB2
:1009900070B504461546084600F046F8626861895D
:1009A000AA1A891A627B491E91FBF2F1C9B28142EF
:1009B00000D30146084670BD203882B2602A4FF04D
:1009C000000006D900220A54401C80B20C28FAD339
:1009D0000AE0064B02EB420203EB8202135C0B546B
:1009E000401C80B20C28F9D3002070475023000827
:1009F00010B5FFF7E1FF002010BD0000094A0146D5
:100A0000002012680AE07F2B04D99379891C1844CE
:100A100080B203E01379491C184480B20B78002B94
:100A2000F1D1704714000020002102E0491C8068C9
:100A3000C9B20028FAD1084670470246806A0021F0
:100A400005E0937B8B4204D0491C8068C9B2002822
:100A5000F7D170472DE9FF4F85B01C46DDF848A05F
:100A600090465FEA010953D4B8F1000F50DBB9F1A9
:100A7000A00F4DDAB8F1A00F4ADA600703D00120C9
:100A800000EBD40000E0E008009009EB0400A0288F
:100A900001D3C9F19F0408EB0A00A02801D3C8F1D3
:100AA0009F0A002632E00098082770430490002037
:100AB00029E000BF00F108010391A14201D3211AEE
:100AC000CFB2049A002502EBD001484408EB060B94
:100AD000CDE9010114E005990298085C0F49495DD0
:100AE000084201D0012200E00022139808B192B11F
:100AF000002201985946284400F09BF86D1CEDB285
:100B0000BD42E8D30398A042D4D3761C5645CAD33D
:100B100009B0BDE8F08F0122EBE700004823000890
:100B20002DE9F84F04460088217A08441FFA80F81E
:100B3000A088617A084485B2FFF7FCFE074600F002
:100B4000ABF8814600F0AEF80646207A06286ED350
:100B5000607A06286BD3F979401A032867D4A07A03
:100B600000960028D4E900014FF0010A2B464246C6
:100B70002DD000F06DF8CDF80090D4E900012B469F
:100B8000424600F01EFA00F05BF8607AF979AB1E7D
:100B9000401AC01E00EBD0720AEB6200616800963A
:100BA0000F182068A8F10202801C891C00F050F880
:100BB000E0680090207A0123801E82B220683946C6
:100BC000801C00F021FABDE8F84F00F039B800F0C1
:100BD0003FF8CDF80090D4E900016B1EA8F10102A6
:100BE00000F0EFF9607AF9790123401AC01E00EB9A
:100BF000D07261680AEB62000144E0680090207ADC
:100C0000C01E82B22068801C00F0FEF961684B466D
:100C10002A464046491C00F0A3F9206801B04B4623
:100C200042462946BDE8F04F401C00F041B8BDE8FF
:100C3000F88FC9B2C0B20AB101F078B801F066B855
:100C4000024801784278027041707047100000201D
:100C50002DE9F8431C46DDF8208015460646A142E2
:100C600001DD0C461946AE4201DD354616460F46FB
:100C700008E001232A4639463046CDF8008000F0CE
:100C80001DF87F1CA742F4DDBDE8F8830149086028
:100C900070470000140000200148007870470000F1
:100CA000100000200148407870470000100000202C
:100CB00008B50093012300F001F808BD2DE9F041CB
:100CC0001546DDF818801E460F460446A84201DD91
:100CD00025461446A02F19D2002D17DBA02C15DABB
:100CE000A02D00DB9F25002C00DA0024AC4205D1AA
:100CF00042462046BDE8F041FFF79BBF42463946D9
:100D00002046FFF796FF3444AC42F7DDBDE8F081A2
:100D10002DE9F84F0446FFF7BFFF0546FFF7C2FF76
:100D20000646B4F90000A1884218A02A6ADCB4F98A
:100D30000210CB1CA02B65DC521E0095FFF788FF2C
:100D4000B4F90600052804DBA1880722B1FBF2F103
:100D500004E0012856DBA18891FBF0F1CFB2B4F991
:100D60000810002901DA002002E0814201DB401E68
:100D700020810096B4F90000A18802234218B4F93A
:100D80000210401C491C921EFFF798FF0096B4F910
:100D90000000A18802234218B4F90210801C891CAB
:100DA000921EFFF78BFFB4F906603046FFF725FB74
:100DB0008046A0888146FFF729FB4146FFF770FA7D
:100DC0008246B4F908008046FFF717FB5146FFF74B
:100DD00035FAFFF746FBB4F90020761E1044C0B286
:100DE000B045009504DAB4F902108B1CC21906E074
:100DF00002EB0900421EB4F90210C01B8B1C491CF7
:100E0000FFF726FFBDE8F88F70B50446FFF715FE23
:100E100070B3C06860B3E17B227C914224D26369E5
:100E200001EB4101A27B03F82120E37B082503EBC2
:100E30004303626905EB8303A16AD150E37B042578
:100E400003EB4303626905EB8303616AD150E17BE5
:100E5000491CE1730021A173A062FFF7E5FD84F84E
:100E60002C002046FFF7E5FB00F086F9002070BD5E
:100E7000012070BD0021C173817301680162416866
:100E800041628169816270471CB5817B491CC9B28E
:100E9000817390F82C20914201D30021817390F846
:100EA0002D20817BCDE90012D0E90931026AFFF7DC
:100EB0004FFCBDE81C4000F05FB900002DE9F84F81
:100EC0000446FFF7E9FE0546FFF7ECFE8046207A70
:100ED000052840D3617A05293DD3A27A642A01D935
:100EE0006422A2722268924602441FFA82FB626860
:100EF000114491468FB2FFF78EFA0022174BFFF78D
:100F00000DFAFFF7C2FA0646A07AFFF77FFA3146DC
:100F1000FFF794F906465046FFF76FFA3146FFF7A0
:100F200035F9FFF785FA06463B465A46494650468C
:100F3000CDF80080FFF78CFE0095D4E900013B4618
:100F40005A4600F03EF8009503CC7B1E3246401C0A
:100F5000491CFFF77DFEBDE8F88F000000005940F6
:100F600008B50093012300F001F808BD2DE9F04118
:100F70001546DDF818801E460C460746A94201DDDD
:100F80000D461446A02F1AD2002D18DBA02C16DA1D
:100F9000A02D00DB9F25002C00DA0024AC4206D1F6
:100FA000424621463846BDE8F041FFF742BE424680
:100FB00021463846FFF73DFE3444AC42F7DDBDE83C
:100FC000F0812DE9F8431F46089C90460D460646E1
:100FD00001230094FFF772FE012342463946304652
:100FE0000094FFF76BFE01233A46294630460094F1
:100FF000FFF7BCFF01233A46294640460094FFF71D
:10100000B5FFBDE8F88300002DE9F04385B01D462B
:1010100014460E460746DDF83090FFF743FE804643
:101020004846FFF7EBFC01460020A14203D8012D02
:101030001ED0022D21D0ADF80C0000BFCDE9007606
:1010400010498DF80F008DF80E00ADF808400968C2
:10105000B8F1000FC979ADF80A1000D001208DF861
:1010600010004946684600F01BF805B0BDE8F08363
:10107000611A01EBD171490800E0611AADF80C105A
:10108000DCE70000140000200149087070470000F0
:101090001000002001494870704700001000002037
:1010A0002DE9FC4704460D4600682189A2880144C9
:1010B0001FFA81F86189DFF8BC9011448FB2A189D1
:1010C000461851E07F28D9F8000001D9807900E066
:1010D0000079A17B30440144414508DDD9F8000086
:1010E0002668C179E07B0844616808446060D9F8EB
:1010F00000006268C3791A44E37B1A44BA4236DCC2
:101100002B787F2B19D9D0F810C0826869781846DF
:10111000E047D9F80000227CC179CDE9001283793B
:10112000626880683146FFF795FCD9F80000A17B22
:10113000AD1C80790844064416E0D0E90212184636
:101140009047D9F80000227C4179CDE9001203795B
:10115000626880683146FFF77DFCD9F80000A17B0A
:101160006D1C00790844064428780028AAD1BDE8FF
:10117000FC8700001400002000F05CBE2DE9F84F51
:101180000446FFF789FD0546FFF78CFD0646B4F9D6
:101190000000C11CA02969DCB4F90210A2888B18D8
:1011A000A02B63DCC21C5B1E0095FFF751FDB4F958
:1011B0000600052804DDA1880722B1FBF2F104E056
:1011C000012853DBA18891FBF0F1CFB2B4F90810EC
:1011D000002901DA002002E0814201DB401E20816B
:1011E0000096B4F90210A08802230A18B4F900008E
:1011F000491C401C921EFFF7B9FE0096B4F902107C
:10120000A08802230A18B4F90000891C801C921ED1
:10121000FFF7ACFEB4F906000646FFF7EEF880468D
:10122000A0888146FFF7F2F84146FFF739F8B4F994
:10123000088082464046FFF7E0F85146FEF7FEFF81
:10124000FFF70FF9B4F9023000951844C1B2701ECF
:10125000804501DACB1903E003EB0900431EC11BF3
:10126000B4F90000821C401CFFF7F2FCBDE8F88FC7
:1012700010B5044600F020F807490878102802D37A
:101280004FF0FF3010BD01EB800044600878401C37
:101290000870002010BD0000B00400200549087847
:1012A000002806D0102804D851F820104869096990
:1012B00008477047B0040020F8B50446FFF7ECFC7F
:1012C0000546FFF7EFFC064627892068C219511E24
:1012D000A0293CDCB4F80AC0616801EB0C03A3F15F
:1012E000010EBEF1A00F32DC002830DB00292EDB1E
:1012F000002F2CD0BCF1000F29D0521E5B1E00968F
:10130000FFF7A6FC00956089616822890B182068A8
:101310005B1E0244521EFFF754FEE06898B121891B
:1013200020682B4642186168521E0F31FFF7C0FC3F
:10133000E068009020890123001F82B203CC801C4A
:10134000891CFFF761FEBDE8F840FFF715BFF8BD47
:1013500070B5044600F004F90546601C02D004484C
:101360000078044400F0FCF8401BA042FAD370BDA2
:10137000000000202DE9F84FDFF8B891002409F1B2
:10138000040A0AF1040B23460F270BF1040EC9E0EF
:101390000125A5402A40AA427DD1674ED1F804C05C
:1013A000ACEB0608B44532D014DCBCF1030F3AD0E4
:1013B00009DCBCF1000F2AD0BCF1010F1CD0BCF13C
:1013C000020F31D11DE0BCF1110F17D0BCF1120F8B
:1013D0002AD119E0B8F5881F19D006DCB8F5803F8E
:1013E00015D0B8F5801F1FD111E0B8F5001F0ED041
:1013F000B8F5041F18D10AE0CB6815E0CB681B1DB7
:1014000012E0CB6808330FE0CB680C330CE08B683C
:101410002BB1012B4FF0080303D0456104E00423F6
:1014200002E0056100E00023FF2A01D8064601E042
:1014300000F104064FEA840501D9A5F12005D6F88C
:10144000008007FA05FC28EA0C0803FA05F548EACB
:101450000508C6F800804D68ED0062D5374DAE69CD
:1014600046F00106AE61AD6924F0030605F0010502
:101470000095334D06EB050CDCF80850A607360F37
:1014800007FA06F825EA0805DFF8B880404503D1D9
:101490004FF0000817E044E0DFF8AC80404502D18F
:1014A0004FF001080FE0DFF8A480404502D14FF073
:1014B000020808E0DFF89880404502D14FF00308A9
:1014C00001E04FF0040808FA06F848EA0508CCF8ED
:1014D00008804D68D9F80060ED034D4601D51643EC
:1014E00000E096432E604D68DAF80060AD03554683
:1014F00001D5164300E096432E604D68DBF800608E
:10150000ED025D4601D5164300E096432E604D681E
:10151000DEF80060AD02754601D5164300E0964343
:101520002E60641C0D682A46E5407FF431AFBDE8AB
:10153000F88F00000004014000001110001002406C
:101540000000014000080140000C01400010014073
:10155000001401400AB1016170470904FBE7000073
:101560000148806870470000000000200248816840
:10157000027811448160704700000020074810B5D0
:10158000016841F010010160032000F067F80020BD
:1015900000F006F800F024F8002010BD0020024002
:1015A00070B50D4D04464FF47A712878B1FBF0F018
:1015B0000A490968B1FBF0F000F0BEFA48B9102CF6
:1015C00007D200222146501E00F028F800206C604F
:1015D00070BD012070BD0000000000200C00002044
:1015E0000C4808B5816941F001018161816901F010
:1015F00001010091C16941F08051C161C06900F0F1
:10160000805000900448416821F0E06141F0007191
:10161000416008BD0010024000000140F0B40E4BD4
:101620001B680C46C3F30223C3F10705042D00D940
:101630000425191D072901D2002300E0DB1E012625
:1016400006FA05F1491E214099409E40761E16403B
:101650003143F0BC00F08EBC0CED00E0064900F018
:10166000070208684FF6FF03184040EA0220034AC9
:1016700010430860704700000CED00E00000FA0520
:101680002DE9F0470F46050061D0434E306800F069
:101690000700B84209D2306820F0070038433060B4
:1016A000306800F00700B84251D128683B4C8107F0
:1016B00012D5400703D5606840F4E0606060287888
:1016C000000703D5606840F4605060606068A968F6
:1016D00020F0F000084360602878C00728D06868D0
:1016E000012810D02168022810D0890700292EDA9D
:1016F000616821F0030101436160FFF731FF80461B
:1017000041F288390DE021688903EFE78901EDE7AF
:10171000FFF726FFA0EB0801494502D90320BDE8E9
:10172000F0876068696800F00C00B0EB810FEFD1C2
:10173000306800F00700B8420BD9306820F007008D
:1017400038433060306800F00700B84201D0012013
:10175000E5E72878400705D56068E96820F4E0608F
:10176000084360602878000706D56068296920F47E
:10177000605040EAC100606000F018F86168084AF3
:10178000C1F30311515CC84006490860064800686F
:10179000FFF706FF0020C2E70020024000100240D1
:1017A000382300080C0000200400002012A185B09E
:1017B0000FC98DE80F0014A0144A00680490516806
:1017C000134801F00C03042B10D0082B0ED1C1F3E9
:1017D0008343C9031DF803000AD5516804AAC1F365
:1017E0004041515C0A4A5043B0FBF1F005B07047EC
:1017F00008494843FAE70000020304050607080900
:101800000A0B0C0D0E0F1010010200000010024018
:1018100000127A0000093D002DE9F84F040070D055
:101820002078C04DC00749D06868C0F38100012806
:1018300007D06868C0F38100022809D16868C00336
:1018400006D52868800339D560680028E7D035E0E0
:101850006068B0F5803F0BD010B1B0F5A02F11D06B
:10186000286820F480302860286820F4802002E076
:10187000286840F480302860606890B1FFF770FEFF
:1018800006460AE0286840F480202860F0E700BFA0
:10189000FFF766FE801B642873D828688003F7D59D
:1018A0000CE0FFF75DFE064605E000BFFFF758FEBF
:1018B000801B6428F0D828688003F7D420789A4EDB
:1018C00080074FF001094FF0000839D5686810F023
:1018D0000C0F07D06868C0F38100022809D168683E
:1018E000C00306D42868800714D52069012808D1D0
:1018F00010E02069B0B1C6F80090FFF731FE07464E
:1019000005E00AE1FFF72CFEC01B0228C4D82868B6
:101910008007F7D52868616920F0F80040EAC10027
:1019200028600DE0C6F80080FFF71AFE074604E0C5
:10193000FFF716FEC01B022823D828688007F7D4BB
:10194000207800072CD57948A169D9B1C0F800905A
:10195000FFF706FE074604E0FFF702FEC01B022861
:101960000FD8686A8007F7D571484FF4FA510068BC
:10197000B0FBF1F0009000BF0098411E0091FAD238
:101980000EE080E0C0F80080FFF7EAFD074604E0C3
:10199000FFF7E6FDC01B022875D8686A8007F7D4F8
:1019A0002078400760D5E8690027C00008D4E869BE
:1019B00040F08050E861E869012700F08050009015
:1019C0005C480168C90513D40168834641F48071FD
:1019D0000160FFF7C5FD824606E000BFFFF7C0FDCE
:1019E000A0EB0A0064284ED8DBF80000C005F5D54E
:1019F000E06801280AD008B1052813D0286A20F031
:101A000001002862286A20F0040002E0286A40F001
:101A100001002862E06841F2883B98B1FFF7A0FD21
:101A200082460BE0286A40F004002862EEE700BF1F
:101A3000FFF796FDA0EB0A0159455AD8286A80079E
:101A4000F6D50CE0FFF78CFD824605E0FFF788FD38
:101A5000A0EB0A0159454CD8286A8007F6D41FB17B
:101A6000E86920F08050E861E06988B36968C1F3F3
:101A70008101022944D00228C6F8608004D0FFF713
:101A80006FFD044638E034E0FFF76AFD074604E0E6
:101A9000FFF766FDC01B02282BD828688001F7D409
:101AA000206AB0F5803F05D16868A16820F4003055
:101AB00008436860D4E908010843696821F4741197
:101AC00008436860C6F86090FFF74AFD044606E0E8
:101AD00025E000BFFFF744FD001B022809D8286855
:101AE0008001F7D51BE000BFFFF73AFD001B02287D
:101AF00002D90320BDE8F88F28688001F4D40EE0F5
:101B00000128F7D06868226A00F48031914204D13C
:101B1000616A00F47010884201D00120EAE70020D9
:101B2000E8E7000000100240000042428004424208
:101B30000C0000200070004010B5401EB0F1807F06
:101B400001D3012010BD4FF0E02460610F21601728
:101B500000F010FA0020A06107202061002010BDD5
:101B6000FEE700002DE9F04101220E4DD40321468D
:101B70002846FFF7EFFC0022521EFDD201220A4F39
:101B8000160231463846FFF7E5FC0022214628467A
:101B9000FFF7E0FC31463846BDE8F0410022FFF790
:101BA000D9BC0000000C01400008014070B50F4D89
:101BB0004FF48074002221462846FFF7CBFC002218
:101BC000521EFDD2012221462846FFF7C3FC084DD4
:101BD0004FF40044002221462846FFF7BBFC214673
:101BE0002846BDE870400122FFF7B4BC0008014060
:101BF000000C014070B50122074D14022146284611
:101C0000FFF7A8FC0022521EFDD221462846BDE85F
:101C100070400022FFF79EBC000801402DE9F04310
:101C200085B00024214800940194029403948169B2
:101C300041F020018161816901F0200104918169F5
:101C400041F008018161816901F008010491816915
:101C500041F0040181618069DFF8548000F00400E4
:101C60004FF400450490002229464046FFF772FCDD
:101C7000DFF84090EF11002239464846FFF76AFC32
:101C80000095022601250396CDE901546946404698
:101C9000FFF770FB00970396CDE90154694648466B
:101CA000FFF768FB05B0BDE8F083000000100240BC
:101CB000000C01400008014008B506A00090012377
:101CC00080220A210020FFF79FF9BDE80840FFF7B6
:101CD00053BA00006D61696E00000000FEE7FEE788
:101CE00030B40021084B0A465FF0000003EBC0044B
:101CF000401CC0B262548028F8D3491CC9B20829DC
:101D0000F2D330BC00F096B830000020CA0801F0D1
:101D1000070301219940044B03EBC003985C61EA7F
:101D20000000C0439854704730000020CA0801F0FA
:101D3000070301219940034B03EBC000835C0B4375
:101D4000835470473000002010B50021AE2000F011
:101D500097F80021084600F093F80021102000F0C9
:101D60008FF80021402000F08BF80021812000F046
:101D700087F80021CF2000F083F80021A12000F097
:101D80007FF80021C82000F07BF80021A62000F099
:101D900077F80021A82000F073F800213F2000F020
:101DA0006FF80021D32000F06BF80021084600F006
:101DB00067F80021D52000F063F80021802000F0B2
:101DC0005FF80021D92000F05BF80021F12000F03D
:101DD00057F80021DA2000F053F80021122000F01B
:101DE0004FF80021DB2000F04BF80021402000F0EC
:101DF00047F80021202000F043F80021022000F0E5
:101E00003FF800218D2000F03BF80021142000F065
:101E100037F80021A42000F033F80021A62000F0BC
:101E20002FF80021AF2000F02BF8BDE81040FFF79D
:101E300057BF000070B5114E002400BF04F1B00080
:101E4000C0B2002100F01CF80021084600F018F88C
:101E50000021102000F014F85FF0000506EBC5002B
:101E60000121005D00F00CF86D1CEDB2802DF5D362
:101E7000641CE4B2082CE1D370BD000030000020E7
:101E800070B50C460546FFF76DFE782000F016F899
:101E9000FFF7B0FE0CB1402000E0002000F00EF88B
:101EA000FFF7A8FE284600F009F8FFF7A3FEBDE8FB
:101EB0007040FFF77BBE7047704700002DE9F04788
:101EC000DFF84490114F054600244FF400484FF4CA
:101ED0008076280601D5012200E0002241464846CE
:101EE000FFF738FB012231463846FFF733FB00226B
:101EF00031463846FFF72EFB6806641C050EE4B237
:101F0000082CE6D3BDE8F087000C01400008014032
:101F1000FFF72CBB30B58FB028216846FEF72BF9B0
:101F200014210AA8FEF727F9022501200490009544
:101F30001020059000244FF46010CDE9084007956B
:101F40006846FFF769FC08B172B6FEE70F20CDE9DD
:101F50000A054FF48060CDE90C4002210AA80E94D6
:101F6000FFF78EFB002801D072B6FEE70FB030BD40
:101F70007047FEE70907090E002804DB00F1E020A6
:101F800080F80014704700F00F0000F1E02080F8A6
:101F9000141D704702E008C8121F08C1002AFAD1B8
:101FA00070477047002001E001C1121F002AFBD1D9
:101FB00070470000144810B50CA101600C21C171DC
:101FC0008171417106210171A0F1180181600F49F1
:101FD00001610F49C160FEF759FE0020FFF75AF872
:101FE000BDE810400120FFF74FB8000047423233F0
:101FF00031325B31322A31325D3B41534349495BD7
:10200000352A375D000000000C050020410900085A
:10201000F1090008FFF7B2FAFFF77CFFFFF7FEFDBA
:1020200000F000F8DAB0FFF78FFEFFF7C3FF0024DF
:102030008DF866400220402680278DF86700ADF8B5
:10204000606016941794ADF862708DF86840ADF832
:10205000647084A116A8FFF723F8FFF78DF84FF4FA
:10206000FA694846FFF774F99F2300211A4608468B
:102070000094FEF7EDFD28208DF874007BA04FF052
:102080001E081E900A258DF8758001208DF87600B7
:102090001B951C951BA8FEF743FDFFF76DF84846FE
:1020A000FFF756F99F2300211A4608460094FEF7D1
:1020B000CFFDADF80450ADF808506420ADF80650DF
:1020C000ADF80C50ADF80A0000250BE0ADF8085053
:1020D00001A8FEF71DFEFFF74FF81420FFF738F9AF
:1020E0006D1CEDB2BDF90A00A842EFDC9F23002170
:1020F0001A4608460094FEF7ABFD0520ADF84040B7
:10210000ADF84240ADF84660ADF8480000250BE060
:10211000ADF8445010A8FFF731F8FFF72DF8142060
:10212000FFF716F96D1CEDB2BDF94600A842EFDCD1
:102130009F2300211A4608460094FEF789FD3C20A3
:102140008DF85580139414948DF854005FF00005B9
:102150008DF8565013A8FEF7B1FEFFF70DF81420C6
:10216000FFF7F6F86D1C9DF85400EDB2A842EFD8C9
:102170004D464846FFF7ECF89F2300211A460846D3
:102180000094FEF765FD1422394950A8FDF7DAFFE7
:102190003749142214313CA8FDF7D4FF50A8344924
:1021A0003E901422283141A8FDF7CCFF3CA83049CD
:1021B000439014223C3155A8FDF7C4FF2C4914224A
:1021C000503146A8FDF7BEFF55A829494890142272
:1021D000643137A8FDF7B6FF46A8399041A82449D5
:1021E0003A90142278314BA8FDF7ACFF37A820496C
:1021F0004E9030228C3104A8FDF7A4FF1FA809904F
:102200004BA80A9004A8FEF735FE04A8FEF7FCFDD3
:10221000FEF7B2FF2846FFF79BF804A8FEF7F4FD8F
:10222000FEF7AAFF2846FFF793F804A8FEF72CFE56
:10223000FEF7A2FF2846FFF78BF89F2300211A46DE
:1022400008460094FEF704FD0A480B490460446008
:1022500046810781C0E90341FFF70AF8FFF71EF83E
:10226000FCE7000061626331323300006F6B0000F5
:102270007C22000818000020B91C0008060000009D
:10228000E827000800000000000000000000000037
:1022900005000000DC27000800000000000000002E
:1022A0000000000004000000D0270008000000002B
:1022B000000000000000000003000000E427000808
:1022C000000000000000000000000000020000000C
:1022D000E4270008000000000000000000000000EB
:1022E00001000000D82700080000000000000000E6
:1022F0000000000000000000F027000800000000BF
:1023000000000000000000000000000000000000CD
:1023100080004000300F01000800000000000000B5
:1023200000000000000000000000000000000000AD
:10233000000000000000000000000000000000009D
:102340000102030406070809804020100804020166
:10235000000000000000000000000000000020203D
:10236000202020000020000028285000000000004D
:102370000000000000005050F85050F8505000008D
:10238000002070A8A0603028A8702000000048A895
:10239000B0A874345448000000002050506CA8A825
:1023A0009468000040408000000000000000000031
:1023B000081010202020202010100800402020109D
:1023C000101010102020400000000020A87070A8FD
:1023D0002000000000000010107C10100000000021
:1023E00000000000000000004040800000000000ED
:1023F00000FC0000000000000000000000000000E1
:102400000040000000040808101020204040800018
:10241000000070888888888888700000000020602C
:1024200020202020207000000000708888102040AC
:1024300080F80000000070880830080888700000EC
:1024400000001030305090F8103800000000F88084
:1024500080F08808887000000000304880B0C8888C
:102460008870000000007808101020202020000054
:10247000000070888870888888700000000070886C
:1024800088986808906000000000000020000000AC
:1024900000200000000000000020000000202000BC
:1024A000000008102040402010080000000000003C
:1024B000FC00FC0000000000000040201008081094
:1024C00020400000000070888810202000200000BC
:1024D0000000384494B4B4B8443800000000202010
:1024E0003050507848CC00000000F0484870484810
:1024F00048F00000000078888080808088700000AC
:102500000000F0484848484848F000000000F848FB
:102510005070504048F800000000F848507050409B
:1025200040E000000000384880809C88483000006F
:102530000000CC484878484848CC00000000F8200B
:102540002020202020F8000000007C101010101027
:10255000101090E00000EC485060504848EC00003B
:102560000000E0404040404044FC00000000DCD857
:10257000D8D8A8A8A8AC00000000DC486868585863
:1025800048E800000000708888888888887000000B
:102590000000F0484870404040E0000000007088B3
:1025A000888888E8987018000000F0484870504803
:1025B00048EC0000000078888060100888F0000077
:1025C0000000F8A820202020207000000000CC4847
:1025D00048484848483000000000CC484850503037
:1025E000202000000000A8A8A8A8705050500000AB
:1025F0000000D8505020205050D800000000D85083
:1026000050502020207000000000F8901020204042
:1026100048F80000382020202020202020203800EA
:1026200000404020202010101008080070101010EA
:10263000101010101010700020500000000000005A
:10264000000000000000000000000000000000FC8E
:10265000402000000000000000000000000000001A
:1026600000304838483C000000C0404040704848B6
:10267000487000000000000000384840483000006A
:102680000018080808384848483C000000000000CE
:10269000003048784038000000182420207820209E
:1026A0002078000000000000003C483040384438EA
:1026B00000C040404070484848EC00000020200026
:1026C000006020202070000000101000003010106A
:1026D000101010E000C040404058506050C800004A
:1026E00000E020202020202020F800000000000032
:1026F00000F0A8A8A8A800000000000000F04848CA
:1027000048EC00000000000000304848483000005D
:102710000000000000F04848487040E00000000061
:10272000003848484838081C0000000000D86040C5
:1027300040E0000000000000007840300878000011
:102740000000002020782020203800000000000039
:1027500000D84848483C00000000000000D8505015
:10276000202000000000000000A8A87050500000C9
:102770000000000000D8502050D8000000000000E9
:1027800000CC4848301020C0000000000078102025
:1027900020780000181010101030101010101800C1
:1027A00010101010101010101010101060202020A9
:1027B0002010202020206000689000000000000011
:1027C0000000000000000000000000000000000009
:1027D0006E6F312D310000006E6F31006E6F312D44
:1027E000320000006E6F32006E6F312D330000003A
:1027F000726F6F74000000001828000800000020AD
:1028000018000000941F000830280008180000205D
:1028100008090000A41F00080100000010000000CB
:10282000000000000024F40001000000000000008F
:04000005080000ED02
:00000001FF
