:020000040800F2
:10000000E809002045010008671A0008A118000847
:10001000651A0008D5010008F51C00080000000062
:10002000000000000000000000000000411C00086B
:10003000E5010008000000003F1C0008911C0008BA
:100040005F0100085F0100085F0100085F01000810
:100050005F0100085F0100085F0100085F01000800
:100060005F0100085F0100085F0100085F010008F0
:100070005F0100085F0100085F0100085F010008E0
:10008000D90100085F0100085F0100085F01000856
:100090005F0100085F0100085F0100085F010008C0
:1000A0005F0100085F0100085F0100085F010008B0
:1000B0005F0100085F0100085F0100085F010008A0
:1000C0005F0100085F0100085F0100085F01000890
:1000D0005F0100085F0100085F0100085F01000880
:1000E0005F0100085F0100085F0100085F01000870
:1000F0005F0100085F0100085F0100085F01000860
:100100005F0100085F0100085F0100085F0100084F
:100110005F0100085F0100085F0100085F0100083F
:100120005F0100085F0100085F0100085F0100082F
:10013000DFF80CD000F03CF800480047951D00089F
:10014000E80900200648804706480047FEE7FEE72A
:10015000FEE7FEE7FEE7FEE7FEE7FEE7FEE7FEE777
:10016000F31C00083101000840EA01039B0703D09B
:1001700009E008C9121F08C0042AFAD203E011F8E6
:10018000013B00F8013B521EF9D27047D2B201E0A8
:1001900000F8012B491EFBD270470022F6E710B58C
:1001A00013460A4604461946FFF7F0FF204610BDE5
:1001B000064C074D06E0E06840F0010394E80700B4
:1001C00098471034AC42F6D3FFF7B6FF702400080E
:1001D00090240008FEE70000014800F0BDBC0000CC
:1001E0003405002070472DE9FC5F044600F0A8FAB2
:1001F0002289217B6FF0070AB2FBF1F14EB2E17B5D
:100200006FF00B0B731A04F124071AD401EB4101B0
:100210000AEB810260690BEB81018258415C204648
:1002200000F050F960623A462046A16A00F05FF99A
:1002300084F82D00E17B237B2268491E01FB032209
:1002400054E00090608961680B1820685B1E0244CE
:10025000521E00F04BFA01252CE0E07B6169801B07
:10026000284400EB4000042202EB80028A5A11F875
:1002700020800FFA82F9082202EB80004A460958D2
:10028000204600F05AF9CDE90080227B2168681EE3
:1002900000FB0212E07B6169801B284400EB4003F5
:1002A000082000EB83004B460958204600F02AF84E
:1002B0006D1CEDB2B542D0DBE17B606901EB410121
:1002C0000AEB81020BEB81018258415C204600F071
:1002D000F9F860623A462046A16A00F008F984F80D
:1002E0002D00227B2168761E06FB02122262A17B72
:1002F000CDE90010D4E90931204600F003F8BDE84B
:10030000FC9F00002DE9F04F85B09B4615468846BE
:1003100004464FF0000A0F9F00F00CFA019000F025
:100320000FFA01460E9887420CD8C01B401C00F003
:10033000FF0A002004E000BFD8F80880401CC0B2CB
:100340005045F9D30091617B681E07FB01B3217B07
:1003500002900A185946284600F0C8F90BF102002D
:100360000390A5F1080000260BF10109049063E059
:100370000E980AEB0601814232D101980090607B11
:10038000ABF10101721C02FB0013227B02990A44AB
:1003900006FB0091681C00F0A9F900F09FF9D8F85D
:1003A00004000090207B617BC01E82B20398002372
:1003B00006FB0101A81C00F0A5FAD8F80C0060B1FA
:1003C0003EA00090617B0398227B06FB010104980C
:1003D00000231044062200F095FA00F07FF91DE09A
:1003E000D8F804000090207B617BC01E82B2039885
:1003F000002306FB0101A81C00F084FAD8F80C00C9
:1004000060B12EA00090617B0398227B06FB010166
:10041000049800231044062200F074FA217B02980D
:10042000761C0A18617B681C06FB01B1019B00F079
:100430008DF9D8F80880F6B2BE4299D3217B029894
:10044000019B0A185946681C00F080F961896068B0
:10045000627B084407FB0291401E884206DB227B38
:100460000298019B0244681C00F070F9617B2846E9
:1004700007FB01925946019B00F0F1F9617B207B5B
:1004800007FB019228445946019B00F0E8F92189B5
:1004900020680144207B421991420BDD627B019B65
:1004A00007FB02926D1C05B028445946BDE8F04F89
:1004B00000F0D5B905B0BDE8F08F00003E000000A7
:1004C00072B6FEE710B544684389141B1C1B437BBE
:1004D000641E94FBF3F0C0B2814203D3401E00FBC4
:1004E000032010BD01FB032010BD0020704770B534
:1004F00006461088154604B2084600F06BF801461F
:10050000286873687289C01A101A727B401E90FBAB
:10051000F2F0C0B2884201D3084670BD401CA41A54
:1005200024B2C0B2A34204DD1119401E0CB2C0B205
:1005300001E08842F2D12C6070BD70B504461546CA
:10054000084600F047F862686189AA1A891A627B36
:10055000491E91FBF2F1C9B2814200D3014608461F
:1005600070BD0000203882B2602A4FF0000006D92A
:1005700000220A54401C80B20C28FAD30AE0064B31
:1005800002EB420203EB8202135C0B54401C80B26C
:100590000C28F9D300207047C01F000810B5FFF7E2
:1005A000E1FF002010BD0000094A0146002012684A
:1005B0000AE07F2B04D99379891C184480B203E0A8
:1005C0001379491C184480B20B78002BF1D1704785
:1005D00020000020002102E0491C8068C9B20028E8
:1005E000FAD1084670470246806A002105E0937BF5
:1005F0008B4204D0491C8068C9B20028F7D17047EB
:100600002DE9FF4F85B01C46DDF848A090465FEA13
:10061000010953D4B8F1000F50DBB9F1A00F4DDA46
:10062000B8F1A00F4ADA600703D0012000EBD40034
:1006300000E0E008009009EB0400A02801D3C9F114
:100640009F0408EB0A00A02801D3C8F19F0A0026E6
:1006500032E00098082770430490002029E000BF92
:1006600000F108010391A14201D3211ACFB2049AEB
:10067000002502EBD001484408EB060BCDE901014F
:1006800014E005990298085C0F49495D084201D0C1
:10069000012200E00022139808B192B100220198D3
:1006A0005946284400F012F86D1CEDB2BD42E8D363
:1006B0000398A042D4D3761C5645CAD309B0BDE8EE
:1006C000F08F0122EBE7000040240008C9B2C0B25D
:1006D0000AB101F0EFB901F0DDB90000024801787C
:1006E00042780270417070471C0000202DE9F843E9
:1006F0001C46DDF8208015460646A14201DD0C4669
:100700001946AE4201DD354616460F4608E0012384
:100710002A4639463046CDF8008000F01DF87F1C8F
:10072000A742F4DDBDE8F883014908607047000086
:100730002000002001480078704700001C000020C5
:1007400001484078704700001C00002008B5009365
:10075000012300F001F808BD2DE9F0411546DDF850
:1007600018801E460F460446A84201DD2546144661
:10077000A02F19D2002D17DBA02C15DAA02D00DB3D
:100780009F25002C00DA0024AC4205D142462046C9
:10079000BDE8F041FFF79ABF424639462046FFF7D1
:1007A00095FF3444AC42F7DDBDE8F08170B50446F6
:1007B000FFF719FF70B3C06860B3E17B227C914200
:1007C00024D2636901EB4101A27B03F82120E37B82
:1007D000082503EB4303626905EB8303A16AD1504B
:1007E000E37B042503EB4303626905EB8303616A42
:1007F000D150E17B491CE1730021A173A062FFF796
:10080000E9FE84F82C002046FFF7EDFC00F032F9F9
:10081000002070BD012070BD0021C173817301688B
:100820000162416841628169816270471CB5817BC8
:10083000491CC9B2817390F82C20914201D3002148
:10084000817390F82D20817BCDE90012D0E9093128
:10085000026AFFF757FDBDE81C4000F00BB908B570
:100860000093012300F001F808BD2DE9F041154681
:10087000DDF818801E460C460746A94201DD0D46EC
:100880001446A02F1AD2002D18DBA02C16DAA02DAA
:1008900000DB9F25002C00DA0024AC4206D1424642
:1008A00021463846BDE8F041FFF710BF42462146D9
:1008B0003846FFF70BFF3444AC42F7DDBDE8F0816A
:1008C0002DE9F8431F46089C90460D460646012335
:1008D0000094FFF741FF0123424639463046009419
:1008E000FFF73AFF01233A46294630460094FFF7C6
:1008F000BCFF01233A46294640460094FFF7B5FF66
:10090000BDE8F8832DE9F04385B01D4614460E4638
:100910000746DDF83090FFF713FF80464846FFF7A3
:1009200043FE01460020A14203D8012D1ED0022D16
:1009300021D0ADF80C0000BFCDE9007610498DF84C
:100940000F008DF80E00ADF808400968B8F1000FEF
:10095000C979ADF80A1000D001208DF81000494681
:10096000684600F01BF805B0BDE8F083611A01EBA2
:10097000D171490800E0611AADF80C10DCE7000005
:100980002000002001490870704700001C00002072
:1009900001494870704700001C0000202DE9FC4709
:1009A00004460D4600682189A28801441FFA81F897
:1009B0006189DFF8BC9011448FB2A189461851E0DB
:1009C0007F28D9F8000001D9807900E00079A17B67
:1009D00030440144414508DDD9F800002668C1795A
:1009E000E07B0844616808446060D9F800006268F0
:1009F000C3791A44E37B1A44BA4236DC2B787F2B46
:100A000019D9D0F810C0826869781846E047D9F83B
:100A10000000227CC179CDE9001283796268806888
:100A20003146FFF7EDFDD9F80000A17BAD1C8079C0
:100A30000844064416E0D0E9021218469047D9F857
:100A40000000227C4179CDE9001203796268806858
:100A50003146FFF7D5FDD9F80000A17B6D1C007968
:100A60000844064428780028AAD1BDE8FC87000085
:100A70002000002001F0A2B810B5044600F020F8D4
:100A800007490878102802D34FF0FF3010BD01EB62
:100A9000800044600878401C0870002010BD0000F1
:100AA000A405002005490878002806D0102804D89D
:100AB00051F820104869096908477047A4050020CB
:100AC000F8B50446FFF736FE0546FFF739FE064641
:100AD00027892068C219511EA0293CDCB4F80AC03D
:100AE000616801EB0C03A3F1010EBEF1A00F32DC33
:100AF000002830DB00292EDB002F2CD0BCF1000FAA
:100B000029D0521E5B1E0096FFF7F0FD009560890C
:100B1000616822890B1820685B1E0244521EFFF791
:100B2000CFFEE06898B1218920682B4642186168A1
:100B3000521E0F31FFF70AFEE06800902089012362
:100B4000001F82B203CC801C891CFFF7DBFEBDE8CE
:100B5000F840FFF78FBFF8BD2DE9F05FC16B0A6861
:100B600001680B68046C4FF0040808FA04F8844D1F
:100B7000844E854FDFF814C2DFF81492DFF814A218
:100B8000DFF814B2DFF814E218EA020F65D05FEA6A
:100B9000437862D50A68920603D40A6822F00402F8
:100BA0000A60DFF8F0814FF48062016808F11408F0
:100BB00013011402414524D9A9420DD0B1420FD0EE
:100BC000B9421AD0614515D0494515D0514501D1DA
:100BD000120312E0594501D104220EE0714501D102
:100BE00040220AE06D4D1435A94206D06B4A2832E6
:100BF000914201D11A4600E022466749091F0A6066
:100C000029E0A94213D0B14215D0B94220D06145A4
:100C10001BD049451BD0514502D14FF4800217E04B
:100C2000414502D14FF0806212E0594501D10422C2
:100C30000EE0714501D140220AE0584D1435A94219
:100C400006D0564A2832914201D11A4600E0224687
:100C50004B4908394A60C16A71E04FF0020808FA4E
:100C600004F818EA020F70D05FEA83786DD50A683D
:100C7000920606D40A6822F00A020A60012180F86E
:100C80002110DFF810814FF40072016808F1140898
:100C900013011402414524D9A9420DD0B1420FD00D
:100CA000B9421AD0614515D0494515D0514501D1F9
:100CB000120312E0594501D102220EE0714501D123
:100CC00020220AE0354D1435A94206D0334A283295
:100CD000914201D11A4600E022462F49091F0A60BD
:100CE00029E0A94213D0B14215D0B94220D06145C4
:100CF0001BD049451BD0514502D14FF4001217E0DB
:100D0000414502D14FF0007212E0594501D1022253
:100D10000EE0714501D120220AE0204D1435A94290
:100D200006D01E4A2832914201D11A4600E02246DE
:100D3000134908394A60002180F82010816A00298F
:100D40001CD0BDE8F05F0847FFE70825A540154225
:100D500014D01A0712D50A6822F00E020A6090F821
:100D60004020C36B012101FA02F25A60816380F8CE
:100D70002110002180F82010016BE0E7BDE8F09F12
:100D8000080002401C0002403000024044000240C3
:100D9000580002406C000240080402401C0402405B
:100DA00030B560B11A4B026814219A4209D2194B2E
:100DB0001344B3FBF1F18900016417490AE00120F3
:100DC00030BD134B5B421344B3FBF1F18900016466
:100DD0000F490839C163022180F82110136843F6D6
:100DE000F0718B43F0E901142143D0E902452C4313
:100DF0002143046921434469214384692143194300
:100E0000116000214163012242770177084630BD1D
:100E100008040240F8FFFDBF0000024070B5044620
:100E200000F010F90546601C02D004480078044424
:100E300000F008F9401BA042FAD370BD0C0000205E
:100E40002DE9F84FDFF8C891002409F1040A0AF1EE
:100E5000040B23460F270BF1040ED1E00125A5401A
:100E600006EA0502AA4276D1DFF8A8C14E68A6EBD1
:100E70000C0866452BD00DDC032E34D005DC36B3D0
:100E8000012E19D0022E2FD11BE0112E16D0122EBA
:100E90002AD119E0B8F5881F19D006DCB8F5803FD3
:100EA00015D0B8F5801F1FD111E0B8F5001F0ED086
:100EB000B8F5041F18D10AE0CB6815E0CB681B1DFC
:100EC00012E0CB6808330FE0CB680C330CE08B6882
:100ED0002BB1012B4FF0080303D0456104E004233C
:100EE00002E0056100E00023FF2A01D8064601E088
:100EF00000F104064FEA840501D9A5F12005D6F8D2
:100F0000008007FA05FC28EA0C0803FA05F548EA10
:100F10000508C6F800804D68ED0070D53E4DAE69FD
:100F200046F00106AE61AD6924F0030605F0010547
:100F300000953A4D06EB050CDCF80850A607360F75
:100F400007FA06F825EA0805DFF8D480404503D102
:100F50004FF0000825E052E0DFF8C880404502D19C
:100F60004FF001081DE0DFF8C080404502D14FF08E
:100F7000020816E0DFF8B480404502D14FF00308C4
:100F80000FE0DFF8AC80404502D14FF0040808E0E4
:100F9000DFF8A080404502D14FF0050801E04FF096
:100FA000060808FA06F848EA0508CCF808804D68F3
:100FB000D9F80060ED034D4601D5164300E0964395
:100FC0002E604D68DAF80060AD03554601D5164332
:100FD00000E096432E604D68DBF80060ED025D4650
:100FE00001D5164300E096432E604D68DEF80060A0
:100FF000AD02754601D5164300E096432E60641C91
:101000000A681646E2407FF429AFBDE8F88F000079
:1010100000040140000011100010024000000140D7
:1010200000080140000C0140001001400014014084
:1010300000180140001C01400AB101617047090419
:10104000FBE7000001488068704700000C000020AA
:1010500070B5040025D094F83D00002520B984F82F
:101060003C50204600F0B8F8242084F83D00206869
:10107000016821F0010101602068016841F400412C
:1010800001602068016821F40041016000F01EFA4F
:101090004D4A6168914201D84C4900E04C49884270
:1010A00001D2012070BD4B492368B0FBF1F15E68AD
:1010B00026F03F060E435E606368934206D94FF404
:1010C000967359434FF47A73B1FBF3F12368491CCB
:1010D0001E6A26F03F06314319626168914210D8BA
:1010E0004900401EB0FBF1F2521CC2F30B02042A6D
:1010F00001D2042022E0B0FBF1F0401CC0F30B0051
:101100001CE0A268F2B301EBC10303EB0116431E1E
:10111000B3FBF6F35B1C43F480431B0549D092B349
:1011200001EBC10202EB0111401EB0FBF1F0401CCB
:10113000C0F30B0040F4804040F400402168CA69CD
:101140004CF6FF739A431043C861D4E9071001437A
:101150002068026822F0C00211430160D4E9030153
:1011600001432068826848F2FF339A43114381604B
:10117000D4E9050108432168CA6822F0FF02104340
:10118000C86001E00EE016E02068016841F001014E
:1011900001602564202084F83D00256384F83E50DA
:1011A000002070BD01EB4106431EB3FBF6F35B1C50
:1011B000B3E70120C2E701EB4101401EB0FBF1F0B3
:1011C000401CC0F30B00B7E7A086010080841E001E
:1011D00000093D0040420F0070B586B0002506466C
:1011E000009501950295039500681A4988422ED111
:1011F000194CA06940F00800A061A069694600F0A0
:1012000008000490C0200090122001900320039059
:101210001248FFF715FEE06940F40010E061E06954
:10122000104C00F4001004900D4820601020C4E918
:1012300001058020C4E903056561A5612046E561DB
:10124000FFF7AEFD08B1FFF73BF97463666206B0C5
:1012500070BD00000054004000100240000C01402E
:101260006C00024034050020024881680278114475
:10127000816070470C000020074810B5016841F0FC
:1012800010010160032000F079F8002000F006F85A
:1012900000F024F8002010BD0020024070B50D4D74
:1012A00004464FF47A712878B1FBF0F00A490968D6
:1012B000B1FBF0F000F0E0FA48B9102C07D20022A0
:1012C0002146501E00F03AF800206C6070BD0120ED
:1012D00070BD00000C000020180000200E4808B56A
:1012E000816941F001018161816901F00101009191
:1012F000C16941F08051C161C06900F08050009027
:10130000052000F03BF80548416821F0E06141F01C
:101310000071416008BD0000001002400000014063
:10132000002809DB00F01F020121914040098000E4
:1013300000F1E020C0F8001170470000F0B40E4B3F
:101340001B680C46C3F30223C3F10705042D00D923
:101350000425191D072901D2002300E0DB1E012608
:1013600006FA05F1491E214099409E40761E16401E
:101370003143F0BC00F0BFBC0CED00E0064900F0CA
:10138000070208684FF6FF03184040EA0220034AAC
:1013900010430860704700000CED00E00000FA0503
:1013A0002DE9F0470F46050061D0434E306800F04C
:1013B0000700B84209D2306820F007003843306097
:1013C000306800F00700B84251D128683B4C8107D3
:1013D00012D5400703D5606840F4E060606028786B
:1013E000000703D5606840F4605060606068A968D9
:1013F00020F0F000084360602878C00728D06868B3
:10140000012810D02168022810D0890700292EDA7F
:10141000616821F0030101436160FFF713FE80461C
:1014200041F288390DE021688903EFE78901EDE792
:10143000FFF708FEA0EB0801494502D90320BDE8EB
:10144000F0876068696800F00C00B0EB810FEFD1A5
:10145000306800F00700B8420BD9306820F0070070
:1014600038433060306800F00700B84201D00120F6
:10147000E5E72878400705D56068E96820F4E06072
:10148000084360602878000706D56068296920F461
:10149000605040EAC100606000F028F86168084AC6
:1014A000C1F30311515CC840064908600648006852
:1014B000FFF7F4FE0020C2E70020024000100240C7
:1014C000A81F00081800002010000020044805494B
:1014D00000684968044AC1F30221515CC840704762
:1014E0001800002000100240B81F000812A185B0AB
:1014F0000FC98DE80F0014A0144A006804905168C9
:10150000134801F00C03042B10D0082B0ED1C1F3AB
:101510008343C9031DF803000AD5516804AAC1F327
:101520004041515C0A4A5043B0FBF1F005B07047AE
:1015300008494843FAE700000203040506070809C2
:101540000A0B0C0D0E0F10100102000000100240DB
:1015500000127A0000093D002DE9F84F040070D018
:101560002078C04DC00749D06868C0F381000128C9
:1015700007D06868C0F38100022809D16868C003F9
:1015800006D52868800339D560680028E7D035E0A3
:101590006068B0F5803F0BD010B1B0F5A02F11D02E
:1015A000286820F480302860286820F4802002E039
:1015B000286840F480302860606890B1FFF742FDF1
:1015C00006460AE0286840F480202860F0E700BF63
:1015D000FFF738FD801B642873D828688003F7D58F
:1015E0000CE0FFF72FFD064605E000BFFFF72AFDE0
:1015F000801B6428F0D828688003F7D420789A4E9E
:1016000080074FF001094FF0000839D5686810F0E5
:101610000C0F07D06868C0F38100022809D1686800
:10162000C00306D42868800714D52069012808D192
:1016300010E02069B0B1C6F80090FFF703FD07463F
:1016400005E00AE1FFF7FEFCC01B0228C4D82868A9
:101650008007F7D52868616920F0F80040EAC100EA
:1016600028600DE0C6F80080FFF7ECFC074604E0B8
:10167000FFF7E8FCC01B022823D828688007F7D4AE
:10168000207800072CD57948A169D9B1C0F800901D
:10169000FFF7D8FC074604E0FFF7D4FCC01B022884
:1016A0000FD8686A8007F7D571484FF4FA5100687F
:1016B000B0FBF1F0009000BF0098411E0091FAD2FB
:1016C0000EE080E0C0F80080FFF7BCFC074604E0B5
:1016D000FFF7B8FCC01B022875D8686A8007F7D4EA
:1016E0002078400760D5E8690027C00008D4E86981
:1016F00040F08050E861E869012700F080500090D8
:101700005C480168C90513D40168834641F48071BF
:101710000160FFF797FC824606E000BFFFF792FCEE
:10172000A0EB0A0064284ED8DBF80000C005F5D510
:10173000E06801280AD008B1052813D0286A20F0F3
:1017400001002862286A20F0040002E0286A40F0C4
:1017500001002862E06841F2883B98B1FFF772FC13
:1017600082460BE0286A40F004002862EEE700BFE2
:10177000FFF768FCA0EB0A0159455AD8286A800790
:10178000F6D50CE0FFF75EFC824605E0FFF75AFC59
:10179000A0EB0A0159454CD8286A8007F6D41FB13E
:1017A000E86920F08050E861E06988B36968C1F3B6
:1017B0008101022944D00228C6F8608004D0FFF7D6
:1017C00041FC044638E034E0FFF73CFC074604E007
:1017D000FFF738FCC01B02282BD828688001F7D4FB
:1017E000206AB0F5803F05D16868A16820F4003018
:1017F00008436860D4E908010843696821F474115A
:1018000008436860C6F86090FFF71CFC044606E0D9
:1018100025E000BFFFF716FC001B022809D8286846
:101820008001F7D51BE000BFFFF70CFC001B02286E
:1018300002D90320BDE8F88F28688001F4D40EE0B7
:101840000128F7D06868226A00F48031914204D1FF
:10185000616A00F47010884201D00120EAE700209C
:10186000E8E70000001002400000424280044242CB
:10187000180000200070004010B5401EB0F1807FBD
:1018800001D3012010BD4FF0E02460610F216017EB
:1018900000F031FA0020A06107202061002010BD77
:1018A000FEE7000070B501220D4C55022946204686
:1018B000FFF7C2FB0022521EFDD201221602314662
:1018C0002046FFF7B9FB002229462046FFF7B4FB6C
:1018D00031462046BDE870400022FFF7ADBB000056
:1018E000000C014070B50F4C4FF480750022294662
:1018F0002046FFF7A1FB0022521EFDD201222946FD
:101900002046FFF799FB4FF4007500222946204638
:10191000FFF792FB29462046BDE870400122FFF701
:101920008BBB0000000C014070B50122074D140272
:1019300021462846FFF780FB0022521EFDD2214699
:101940002846BDE870400022FFF776BB000C01403E
:10195000094808B5416941F001014161406900222F
:1019600000F00100009011461020FFF7E7FCBDE8F1
:1019700008401020FFF7D4BC0010024070B586B0BC
:10198000002418480094019402940394816941F062
:1019900020018161816901F020010491816941F098
:1019A00004018161816901F004010491816941F0C0
:1019B0000801816180690C4E00F008004FF4407509
:1019C0000490002229463046FFF736FB012000959F
:1019D000CDE901040220039069463046FFF730FA52
:1019E00006B070BD00100240000C01400D4810B55B
:1019F0000B4901600C49416000214FF48042816035
:101A0000C0E9031241618161C1610162FFF720FBFE
:101A1000002803D0BDE81040FEF752BD10BD000005
:101A200000540040E0040020A086010038B50A4CB4
:101A3000607808B90120607008A00090012380221E
:101A40000A210020FEF75EFFFFF714F8FFF7FAFA0D
:101A5000A0600220607038BD000000206D61696EDA
:101A600000000000FEE7FEE730B40021084B0A4604
:101A70005FF0000003EBC004401CC0B26254802839
:101A8000F8D3491CC9B20829F2D330BC00F096B88B
:101A900024000020CA0801F0070301219940044BEB
:101AA00003EBC003985C61EA0000C04398547047A0
:101AB00024000020CA0801F0070301219940034BCC
:101AC00003EBC000835C0B43835470472400002069
:101AD00010B50021AE2000F097F80021084600F074
:101AE00093F80021102000F08FF80021402000F032
:101AF0008BF80021812000F087F80021CF2000F032
:101B000083F80021A12000F07FF80021C82000F018
:101B10007BF80021A62000F077F80021A82000F033
:101B200073F800213F2000F06FF80021D32000F06F
:101B30006BF80021084600F067F80021D52000F07E
:101B400063F80021802000F05FF80021D92000F028
:101B50005BF80021F12000F057F80021DA2000F0B6
:101B600053F80021122000F04FF80021DB2000F094
:101B70004BF80021402000F047F80021202000F021
:101B800043F80021022000F03FF800218D2000F0F2
:101B90003BF80021142000F037F80021A42000F0C9
:101BA00033F80021A62000F02FF80021AF2000F02C
:101BB0002BF8BDE81040FFF757BF000070B5114E7D
:101BC000002400BF04F1B000C0B2002100F01CF8F6
:101BD0000021084600F018F80021102000F014F849
:101BE0005FF0000506EBC5000121005D00F00CF878
:101BF0006D1CEDB2802DF5D3641CE4B2082CE1D34A
:101C000070BD00002400002070B50C460546FFF7AB
:101C100049FE782000F016F8FFF786FE0CB1402050
:101C200000E0002000F00EF8FFF77EFE284600F0EE
:101C300009F8FFF779FEBDE87040FFF753BE704723
:101C4000704700002DE9F041104F002405464FF485
:101C50000078BE15280601D5012200E00022414689
:101C60003846FFF7E9F9012231463846FFF7E4F933
:101C7000002231463846FFF7DFF96806641C050E7E
:101C8000E4B2082CE6D3BDE8F0810000000C01406E
:101C9000FFF7EABA30B58FB028216846FEF77DFA23
:101CA00014210AA8FEF779FA01210804CDE90010F1
:101CB0000024029402250491CDE907504FF4E0106E
:101CC00009906846FFF748FC08B172B6FEE70F209E
:101CD000CDE90A054FF48060CDE90C4002210AA845
:101CE0000E94FFF75DFB002801D072B6FEE70FB03F
:101CF00030BD7047FEE70907090E002804DB00F13C
:101D0000E02080F80014704700F00F0000F1E020A0
:101D100080F8141D704702E008C8121F08C1002A8D
:101D2000FAD170477047002001E001C1121F002A5C
:101D3000FBD17047144810B50CA101600C21C17192
:101D40008171417106210171A0F1180181600F4973
:101D500001610F49C160FEF7E7FC0020FEF718FEA5
:101D6000BDE810400120FEF70DBE000047423233AF
:101D700031325B31322A31325D3B41534349495B59
:101D8000352A375D0000000090050020EB040008B4
:101D90009D050008CEB0FFF76FFAFFF77BFFFFF756
:101DA000EDFDFFF7D5FDFFF721FEFFF791FEFFF7F1
:101DB000C1FF00248DF8A2400220402680258DF826
:101DC000A300ADF89C6025942694ADF89E508DF844
:101DD000A440ADF8A05040A125A8FEF7DFFDFEF716
:101DE00049FE4FF4FA673846FFF718F89F230021A1
:101DF0001A4608460094FEF779FC1422384943A895
:101E0000FEF7B2F93649142214312FA8FEF7ACF9C7
:101E100043A8334931901422283134A8FEF7A4F99D
:101E20002FA82F49369014223C3148A8FEF79CF980
:101E30002B491422503139A8FEF796F948A82849B1
:101E40003B90142264312AA8FEF78EF939A82C9011
:101E500034A823492D90142278313EA8FEF784F946
:101E60002AA81F49419030228C3101A8FEF77CF945
:101E70000DA806903EA8079001A8FEF7CDFC01A88A
:101E8000FEF794FCFEF7F6FD3846FEF7C7FF01A803
:101E9000FEF78CFCFEF7EEFD3846FEF7BFFF01A80B
:101EA000FEF7C4FCFEF7E6FD3846FEF7B7FF9F23BA
:101EB00000211A4608460094FEF718FC09480A4912
:101EC0000460446046810581C0E90341FEF7D4FD0A
:101ED000FEF7E8FDFCE70000616263313233000089
:101EE000EC1E0008C80400202D1A0008060000009F
:101EF0006024000800000000000000000000000056
:101F0000050000005424000800000000000000004C
:101F10000000000004000000482400080000000049
:101F20000000000000000000030000005C24000826
:101F3000000000000000000000000000020000009F
:101F40005C24000800000000000000000000000009
:101F50000100000050240008000000000000000004
:101F600000000000000000006824000800000000DD
:101F70000000000000000000000000000000000061
:101F800080004000300F0100080000000000000049
:101F90000000000000000000000000000000000041
:101FA0000000000000000000000000000000000031
:101FB00001020304060708090000000001020304EF
:101FC00000000000000000000000000000002020D1
:101FD00020202000002000002828500000000000E1
:101FE0000000000000005050F85050F85050000021
:101FF000002070A8A0603028A8702000000048A829
:10200000B0A874345448000000002050506CA8A8B8
:1020100094680000404080000000000000000000C4
:102020000810102020202020101008004020201030
:10203000101010102020400000000020A87070A890
:102040002000000000000010107C101000000000B4
:102050000000000000000000404080000000000080
:1020600000FC000000000000000000000000000074
:1020700000400000000408081010202040408000AC
:1020800000007088888888888870000000002060C0
:102090002020202020700000000070888810204040
:1020A00080F8000000007088083008088870000080
:1020B00000001030305090F8103800000000F88018
:1020C00080F08808887000000000304880B0C88820
:1020D00088700000000078081010202020200000E8
:1020E0000000708888708888887000000000708800
:1020F0008898680890600000000000002000000040
:10210000002000000000000000200000002020004F
:1021100000000810204040201008000000000000CF
:10212000FC00FC0000000000000040201008081027
:10213000204000000000708888102020002000004F
:102140000000384494B4B4B84438000000002020A3
:102150003050507848CC00000000F04848704848A3
:1021600048F000000000788880808080887000003F
:102170000000F0484848484848F000000000F8488F
:102180005070504048F800000000F848507050402F
:1021900040E000000000384880809C884830000003
:1021A0000000CC484878484848CC00000000F8209F
:1021B0002020202020F8000000007C1010101010BB
:1021C000101090E00000EC485060504848EC0000CF
:1021D0000000E0404040404044FC00000000DCD8EB
:1021E000D8D8A8A8A8AC00000000DC4868685858F7
:1021F00048E800000000708888888888887000009F
:102200000000F0484870404040E000000000708846
:10221000888888E8987018000000F0484870504896
:1022200048EC0000000078888060100888F000000A
:102230000000F8A820202020207000000000CC48DA
:1022400048484848483000000000CC4848505030CA
:10225000202000000000A8A8A8A87050505000003E
:102260000000D8505020205050D800000000D85016
:1022700050502020207000000000F89010202040D6
:1022800048F800003820202020202020202038007E
:10229000004040202020101010080800701010107E
:1022A00010101010101070002050000000000000EE
:1022B000000000000000000000000000000000FC22
:1022C00040200000000000000000000000000000AE
:1022D00000304838483C000000C04040407048484A
:1022E00048700000000000000038484048300000FE
:1022F0000018080808384848483C00000000000062
:102300000030487840380000001824202078202031
:102310002078000000000000003C4830403844387D
:1023200000C040404070484848EC000000202000B9
:1023300000602020207000000010100000301010FD
:10234000101010E000C040404058506050C80000DD
:1023500000E020202020202020F8000000000000C5
:1023600000F0A8A8A8A800000000000000F048485D
:1023700048EC0000000000000030484848300000F1
:102380000000000000F04848487040E000000000F5
:10239000003848484838081C0000000000D8604059
:1023A00040E00000000000000078403008780000A5
:1023B00000000020207820202038000000000000CD
:1023C00000D84848483C00000000000000D85050A9
:1023D000202000000000000000A8A870505000005D
:1023E0000000000000D8502050D80000000000007D
:1023F00000CC4848301020C00000000000781020B9
:102400002078000018101010103010101010180054
:10241000101010101010101010101010602020203C
:1024200020102020202060006890000000000000A4
:10243000000000000000000000000000000000009C
:1024400080402010080402016E6F312D3100000021
:102450006E6F31006E6F312D320000006E6F3200F2
:102460006E6F312D33000000726F6F74000000003A
:10247000902400080000002024000000161D000821
:10248000B424000824000020C4090000261D000810
:10249000000000000000000000000000010000003B
:1024A00010000000000000000024F4000100000003
:0424B0000000000028
:0400000508000131BD
:00000001FF
